{
  "_format": "hh-sol-artifact-1",
  "contractName": "WowNFT",
  "sourceName": "contracts/WowNFT.sol",
  "abi": [
    {
      "inputs": [],
      "stateMutability": "nonpayable",
      "type": "constructor"
    },
    {
      "anonymous": false,
      "inputs": [
        {
          "indexed": true,
          "internalType": "address",
          "name": "owner",
          "type": "address"
        },
        {
          "indexed": true,
          "internalType": "address",
          "name": "approved",
          "type": "address"
        },
        {
          "indexed": true,
          "internalType": "uint256",
          "name": "tokenId",
          "type": "uint256"
        }
      ],
      "name": "Approval",
      "type": "event"
    },
    {
      "anonymous": false,
      "inputs": [
        {
          "indexed": true,
          "internalType": "address",
          "name": "owner",
          "type": "address"
        },
        {
          "indexed": true,
          "internalType": "address",
          "name": "operator",
          "type": "address"
        },
        {
          "indexed": false,
          "internalType": "bool",
          "name": "approved",
          "type": "bool"
        }
      ],
      "name": "ApprovalForAll",
      "type": "event"
    },
    {
      "anonymous": false,
      "inputs": [
        {
          "indexed": true,
          "internalType": "address",
          "name": "from",
          "type": "address"
        },
        {
          "indexed": true,
          "internalType": "address",
          "name": "to",
          "type": "address"
        },
        {
          "indexed": true,
          "internalType": "uint256",
          "name": "tokenId",
          "type": "uint256"
        }
      ],
      "name": "Transfer",
      "type": "event"
    },
    {
      "inputs": [
        {
          "internalType": "address",
          "name": "to",
          "type": "address"
        },
        {
          "internalType": "uint256",
          "name": "tokenId",
          "type": "uint256"
        }
      ],
      "name": "approve",
      "outputs": [],
      "stateMutability": "nonpayable",
      "type": "function"
    },
    {
      "inputs": [
        {
          "internalType": "address",
          "name": "owner",
          "type": "address"
        }
      ],
      "name": "balanceOf",
      "outputs": [
        {
          "internalType": "uint256",
          "name": "",
          "type": "uint256"
        }
      ],
      "stateMutability": "view",
      "type": "function"
    },
    {
      "inputs": [
        {
          "internalType": "uint256",
          "name": "tokenId",
          "type": "uint256"
        }
      ],
      "name": "getApproved",
      "outputs": [
        {
          "internalType": "address",
          "name": "",
          "type": "address"
        }
      ],
      "stateMutability": "view",
      "type": "function"
    },
    {
      "inputs": [
        {
          "internalType": "address",
          "name": "owner",
          "type": "address"
        },
        {
          "internalType": "address",
          "name": "operator",
          "type": "address"
        }
      ],
      "name": "isApprovedForAll",
      "outputs": [
        {
          "internalType": "bool",
          "name": "",
          "type": "bool"
        }
      ],
      "stateMutability": "view",
      "type": "function"
    },
    {
      "inputs": [],
      "name": "makeAWowNFT",
      "outputs": [],
      "stateMutability": "nonpayable",
      "type": "function"
    },
    {
      "inputs": [],
      "name": "name",
      "outputs": [
        {
          "internalType": "string",
          "name": "",
          "type": "string"
        }
      ],
      "stateMutability": "view",
      "type": "function"
    },
    {
      "inputs": [
        {
          "internalType": "uint256",
          "name": "tokenId",
          "type": "uint256"
        }
      ],
      "name": "ownerOf",
      "outputs": [
        {
          "internalType": "address",
          "name": "",
          "type": "address"
        }
      ],
      "stateMutability": "view",
      "type": "function"
    },
    {
      "inputs": [
        {
          "internalType": "address",
          "name": "from",
          "type": "address"
        },
        {
          "internalType": "address",
          "name": "to",
          "type": "address"
        },
        {
          "internalType": "uint256",
          "name": "tokenId",
          "type": "uint256"
        }
      ],
      "name": "safeTransferFrom",
      "outputs": [],
      "stateMutability": "nonpayable",
      "type": "function"
    },
    {
      "inputs": [
        {
          "internalType": "address",
          "name": "from",
          "type": "address"
        },
        {
          "internalType": "address",
          "name": "to",
          "type": "address"
        },
        {
          "internalType": "uint256",
          "name": "tokenId",
          "type": "uint256"
        },
        {
          "internalType": "bytes",
          "name": "_data",
          "type": "bytes"
        }
      ],
      "name": "safeTransferFrom",
      "outputs": [],
      "stateMutability": "nonpayable",
      "type": "function"
    },
    {
      "inputs": [
        {
          "internalType": "address",
          "name": "operator",
          "type": "address"
        },
        {
          "internalType": "bool",
          "name": "approved",
          "type": "bool"
        }
      ],
      "name": "setApprovalForAll",
      "outputs": [],
      "stateMutability": "nonpayable",
      "type": "function"
    },
    {
      "inputs": [
        {
          "internalType": "bytes4",
          "name": "interfaceId",
          "type": "bytes4"
        }
      ],
      "name": "supportsInterface",
      "outputs": [
        {
          "internalType": "bool",
          "name": "",
          "type": "bool"
        }
      ],
      "stateMutability": "view",
      "type": "function"
    },
    {
      "inputs": [],
      "name": "symbol",
      "outputs": [
        {
          "internalType": "string",
          "name": "",
          "type": "string"
        }
      ],
      "stateMutability": "view",
      "type": "function"
    },
    {
      "inputs": [
        {
          "internalType": "uint256",
          "name": "tokenId",
          "type": "uint256"
        }
      ],
      "name": "tokenURI",
      "outputs": [
        {
          "internalType": "string",
          "name": "",
          "type": "string"
        }
      ],
      "stateMutability": "view",
      "type": "function"
    },
    {
      "inputs": [
        {
          "internalType": "address",
          "name": "from",
          "type": "address"
        },
        {
          "internalType": "address",
          "name": "to",
          "type": "address"
        },
        {
          "internalType": "uint256",
          "name": "tokenId",
          "type": "uint256"
        }
      ],
      "name": "transferFrom",
      "outputs": [],
      "stateMutability": "nonpayable",
      "type": "function"
    }
  ],
  "bytecode": "0x608060405260405180610ec00160405280610e95815260200162002dd4610e9591396008908051906020019062000038929190620000ed565b503480156200004657600080fd5b506040518060400160405280600381526020017f576f7700000000000000000000000000000000000000000000000000000000008152506040518060400160405280600481526020017f574f5721000000000000000000000000000000000000000000000000000000008152508160009080519060200190620000cb929190620000ed565b508060019080519060200190620000e4929190620000ed565b50505062000202565b828054620000fb906200019d565b90600052602060002090601f0160209004810192826200011f57600085556200016b565b82601f106200013a57805160ff19168380011785556200016b565b828001600101855582156200016b579182015b828111156200016a5782518255916020019190600101906200014d565b5b5090506200017a91906200017e565b5090565b5b80821115620001995760008160009055506001016200017f565b5090565b60006002820490506001821680620001b657607f821691505b60208210811415620001cd57620001cc620001d3565b5b50919050565b7f4e487b7100000000000000000000000000000000000000000000000000000000600052602260045260246000fd5b612bc280620002126000396000f3fe608060405234801561001057600080fd5b50600436106100ea5760003560e01c80636352211e1161008c578063a22cb46511610066578063a22cb46514610249578063b88d4fde14610265578063c87b56dd14610281578063e985e9c5146102b1576100ea565b80636352211e146101cb57806370a08231146101fb57806395d89b411461022b576100ea565b8063095ea7b3116100c8578063095ea7b31461016d57806323b872dd1461018957806342842e0e146101a557806354825d9d146101c1576100ea565b806301ffc9a7146100ef57806306fdde031461011f578063081812fc1461013d575b600080fd5b61010960048036038101906101049190611bf5565b6102e1565b6040516101169190612091565b60405180910390f35b6101276103c3565b60405161013491906120ac565b60405180910390f35b61015760048036038101906101529190611c47565b610455565b604051610164919061202a565b60405180910390f35b61018760048036038101906101829190611bb9565b6104da565b005b6101a3600480360381019061019e9190611ab3565b6105f2565b005b6101bf60048036038101906101ba9190611ab3565b610652565b005b6101c9610672565b005b6101e560048036038101906101e09190611c47565b6106c1565b6040516101f2919061202a565b60405180910390f35b61021560048036038101906102109190611a4e565b610773565b60405161022291906122ce565b60405180910390f35b61023361082b565b60405161024091906120ac565b60405180910390f35b610263600480360381019061025e9190611b7d565b6108bd565b005b61027f600480360381019061027a9190611b02565b6108d3565b005b61029b60048036038101906102969190611c47565b610935565b6040516102a891906120ac565b60405180910390f35b6102cb60048036038101906102c69190611a77565b610a87565b6040516102d89190612091565b60405180910390f35b60007f80ac58cd000000000000000000000000000000000000000000000000000000007bffffffffffffffffffffffffffffffffffffffffffffffffffffffff1916827bffffffffffffffffffffffffffffffffffffffffffffffffffffffff191614806103ac57507f5b5e139f000000000000000000000000000000000000000000000000000000007bffffffffffffffffffffffffffffffffffffffffffffffffffffffff1916827bffffffffffffffffffffffffffffffffffffffffffffffffffffffff1916145b806103bc57506103bb82610b1b565b5b9050919050565b6060600080546103d290612508565b80601f01602080910402602001604051908101604052809291908181526020018280546103fe90612508565b801561044b5780601f106104205761010080835404028352916020019161044b565b820191906000526020600020905b81548152906001019060200180831161042e57829003601f168201915b5050505050905090565b600061046082610b85565b61049f576040517f08c379a00000000000000000000000000000000000000000000000000000000081526004016104969061224e565b60405180910390fd5b6004600083815260200190815260200160002060009054906101000a900473ffffffffffffffffffffffffffffffffffffffff169050919050565b60006104e5826106c1565b90508073ffffffffffffffffffffffffffffffffffffffff168373ffffffffffffffffffffffffffffffffffffffff161415610556576040517f08c379a000000000000000000000000000000000000000000000000000000000815260040161054d9061228e565b60405180910390fd5b8073ffffffffffffffffffffffffffffffffffffffff16610575610bf1565b73ffffffffffffffffffffffffffffffffffffffff1614806105a457506105a38161059e610bf1565b610a87565b5b6105e3576040517f08c379a00000000000000000000000000000000000000000000000000000000081526004016105da9061218e565b60405180910390fd5b6105ed8383610bf9565b505050565b6106036105fd610bf1565b82610cb2565b610642576040517f08c379a0000000000000000000000000000000000000000000000000000000008152600401610639906122ae565b60405180910390fd5b61064d838383610d90565b505050565b61066d838383604051806020016040528060008152506108d3565b505050565b600061067e6007610ff7565b905061068a3382611005565b6106b48160086040516020016106a09190612013565b604051602081830303815290604052611023565b6106be6007611097565b50565b6000806002600084815260200190815260200160002060009054906101000a900473ffffffffffffffffffffffffffffffffffffffff169050600073ffffffffffffffffffffffffffffffffffffffff168173ffffffffffffffffffffffffffffffffffffffff16141561076a576040517f08c379a0000000000000000000000000000000000000000000000000000000008152600401610761906121ce565b60405180910390fd5b80915050919050565b60008073ffffffffffffffffffffffffffffffffffffffff168273ffffffffffffffffffffffffffffffffffffffff1614156107e4576040517f08c379a00000000000000000000000000000000000000000000000000000000081526004016107db906121ae565b60405180910390fd5b600360008373ffffffffffffffffffffffffffffffffffffffff1673ffffffffffffffffffffffffffffffffffffffff168152602001908152602001600020549050919050565b60606001805461083a90612508565b80601f016020809104026020016040519081016040528092919081815260200182805461086690612508565b80156108b35780601f10610888576101008083540402835291602001916108b3565b820191906000526020600020905b81548152906001019060200180831161089657829003601f168201915b5050505050905090565b6108cf6108c8610bf1565b83836110ad565b5050565b6108e46108de610bf1565b83610cb2565b610923576040517f08c379a000000000000000000000000000000000000000000000000000000000815260040161091a906122ae565b60405180910390fd5b61092f8484848461121a565b50505050565b606061094082610b85565b61097f576040517f08c379a00000000000000000000000000000000000000000000000000000000081526004016109769061222e565b60405180910390fd5b600060066000848152602001908152602001600020805461099f90612508565b80601f01602080910402602001604051908101604052809291908181526020018280546109cb90612508565b8015610a185780601f106109ed57610100808354040283529160200191610a18565b820191906000526020600020905b8154815290600101906020018083116109fb57829003601f168201915b505050505090506000610a29611276565b9050600081511415610a3f578192505050610a82565b600082511115610a74578082604051602001610a5c929190611fef565b60405160208183030381529060405292505050610a82565b610a7d8461128d565b925050505b919050565b6000600560008473ffffffffffffffffffffffffffffffffffffffff1673ffffffffffffffffffffffffffffffffffffffff16815260200190815260200160002060008373ffffffffffffffffffffffffffffffffffffffff1673ffffffffffffffffffffffffffffffffffffffff16815260200190815260200160002060009054906101000a900460ff16905092915050565b60007f01ffc9a7000000000000000000000000000000000000000000000000000000007bffffffffffffffffffffffffffffffffffffffffffffffffffffffff1916827bffffffffffffffffffffffffffffffffffffffffffffffffffffffff1916149050919050565b60008073ffffffffffffffffffffffffffffffffffffffff166002600084815260200190815260200160002060009054906101000a900473ffffffffffffffffffffffffffffffffffffffff1673ffffffffffffffffffffffffffffffffffffffff1614159050919050565b600033905090565b816004600083815260200190815260200160002060006101000a81548173ffffffffffffffffffffffffffffffffffffffff021916908373ffffffffffffffffffffffffffffffffffffffff160217905550808273ffffffffffffffffffffffffffffffffffffffff16610c6c836106c1565b73ffffffffffffffffffffffffffffffffffffffff167f8c5be1e5ebec7d5bd14f71427d1e84f3dd0314c0f7b2291e5b200ac8c7c3b92560405160405180910390a45050565b6000610cbd82610b85565b610cfc576040517f08c379a0000000000000000000000000000000000000000000000000000000008152600401610cf39061216e565b60405180910390fd5b6000610d07836106c1565b90508073ffffffffffffffffffffffffffffffffffffffff168473ffffffffffffffffffffffffffffffffffffffff161480610d7657508373ffffffffffffffffffffffffffffffffffffffff16610d5e84610455565b73ffffffffffffffffffffffffffffffffffffffff16145b80610d875750610d868185610a87565b5b91505092915050565b8273ffffffffffffffffffffffffffffffffffffffff16610db0826106c1565b73ffffffffffffffffffffffffffffffffffffffff1614610e06576040517f08c379a0000000000000000000000000000000000000000000000000000000008152600401610dfd906120ee565b60405180910390fd5b600073ffffffffffffffffffffffffffffffffffffffff168273ffffffffffffffffffffffffffffffffffffffff161415610e76576040517f08c379a0000000000000000000000000000000000000000000000000000000008152600401610e6d9061212e565b60405180910390fd5b610e81838383611334565b610e8c600082610bf9565b6001600360008573ffffffffffffffffffffffffffffffffffffffff1673ffffffffffffffffffffffffffffffffffffffff1681526020019081526020016000206000828254610edc919061241e565b925050819055506001600360008473ffffffffffffffffffffffffffffffffffffffff1673ffffffffffffffffffffffffffffffffffffffff1681526020019081526020016000206000828254610f339190612397565b92505081905550816002600083815260200190815260200160002060006101000a81548173ffffffffffffffffffffffffffffffffffffffff021916908373ffffffffffffffffffffffffffffffffffffffff160217905550808273ffffffffffffffffffffffffffffffffffffffff168473ffffffffffffffffffffffffffffffffffffffff167fddf252ad1be2c89b69c2b068fc378daa952ba7f163c4a11628f55a4df523b3ef60405160405180910390a4610ff2838383611339565b505050565b600081600001549050919050565b61101f82826040518060200160405280600081525061133e565b5050565b61102c82610b85565b61106b576040517f08c379a0000000000000000000000000000000000000000000000000000000008152600401611062906121ee565b60405180910390fd5b806006600084815260200190815260200160002090805190602001906110929291906118da565b505050565b6001816000016000828254019250508190555050565b8173ffffffffffffffffffffffffffffffffffffffff168373ffffffffffffffffffffffffffffffffffffffff16141561111c576040517f08c379a00000000000000000000000000000000000000000000000000000000081526004016111139061214e565b60405180910390fd5b80600560008573ffffffffffffffffffffffffffffffffffffffff1673ffffffffffffffffffffffffffffffffffffffff16815260200190815260200160002060008473ffffffffffffffffffffffffffffffffffffffff1673ffffffffffffffffffffffffffffffffffffffff16815260200190815260200160002060006101000a81548160ff0219169083151502179055508173ffffffffffffffffffffffffffffffffffffffff168373ffffffffffffffffffffffffffffffffffffffff167f17307eab39ab6107e8899845ad3d59bd9653f200f220920489ca2b5937696c318360405161120d9190612091565b60405180910390a3505050565b611225848484610d90565b61123184848484611399565b611270576040517f08c379a0000000000000000000000000000000000000000000000000000000008152600401611267906120ce565b60405180910390fd5b50505050565b606060405180602001604052806000815250905090565b606061129882610b85565b6112d7576040517f08c379a00000000000000000000000000000000000000000000000000000000081526004016112ce9061226e565b60405180910390fd5b60006112e1611276565b90506000815111611301576040518060200160405280600081525061132c565b8061130b84611530565b60405160200161131c929190611fef565b6040516020818303038152906040525b915050919050565b505050565b505050565b61134883836116dd565b6113556000848484611399565b611394576040517f08c379a000000000000000000000000000000000000000000000000000000000815260040161138b906120ce565b60405180910390fd5b505050565b60006113ba8473ffffffffffffffffffffffffffffffffffffffff166118b7565b15611523578373ffffffffffffffffffffffffffffffffffffffff1663150b7a026113e3610bf1565b8786866040518563ffffffff1660e01b81526004016114059493929190612045565b602060405180830381600087803b15801561141f57600080fd5b505af192505050801561145057506040513d601f19601f8201168201806040525081019061144d9190611c1e565b60015b6114d3573d8060008114611480576040519150601f19603f3d011682016040523d82523d6000602084013e611485565b606091505b506000815114156114cb576040517f08c379a00000000000000000000000000000000000000000000000000000000081526004016114c2906120ce565b60405180910390fd5b805181602001fd5b63150b7a0260e01b7bffffffffffffffffffffffffffffffffffffffffffffffffffffffff1916817bffffffffffffffffffffffffffffffffffffffffffffffffffffffff191614915050611528565b600190505b949350505050565b60606000821415611578576040518060400160405280600181526020017f300000000000000000000000000000000000000000000000000000000000000081525090506116d8565b600082905060005b600082146115aa5780806115939061256b565b915050600a826115a391906123ed565b9150611580565b60008167ffffffffffffffff8111156115ec577f4e487b7100000000000000000000000000000000000000000000000000000000600052604160045260246000fd5b6040519080825280601f01601f19166020018201604052801561161e5781602001600182028036833780820191505090505b5090505b600085146116d157600182611637919061241e565b9150600a8561164691906125b4565b60306116529190612397565b60f81b81838151811061168e577f4e487b7100000000000000000000000000000000000000000000000000000000600052603260045260246000fd5b60200101907effffffffffffffffffffffffffffffffffffffffffffffffffffffffffffff1916908160001a905350600a856116ca91906123ed565b9450611622565b8093505050505b919050565b600073ffffffffffffffffffffffffffffffffffffffff168273ffffffffffffffffffffffffffffffffffffffff16141561174d576040517f08c379a00000000000000000000000000000000000000000000000000000000081526004016117449061220e565b60405180910390fd5b61175681610b85565b15611796576040517f08c379a000000000000000000000000000000000000000000000000000000000815260040161178d9061210e565b60405180910390fd5b6117a260008383611334565b6001600360008473ffffffffffffffffffffffffffffffffffffffff1673ffffffffffffffffffffffffffffffffffffffff16815260200190815260200160002060008282546117f29190612397565b92505081905550816002600083815260200190815260200160002060006101000a81548173ffffffffffffffffffffffffffffffffffffffff021916908373ffffffffffffffffffffffffffffffffffffffff160217905550808273ffffffffffffffffffffffffffffffffffffffff16600073ffffffffffffffffffffffffffffffffffffffff167fddf252ad1be2c89b69c2b068fc378daa952ba7f163c4a11628f55a4df523b3ef60405160405180910390a46118b360008383611339565b5050565b6000808273ffffffffffffffffffffffffffffffffffffffff163b119050919050565b8280546118e690612508565b90600052602060002090601f016020900481019282611908576000855561194f565b82601f1061192157805160ff191683800117855561194f565b8280016001018555821561194f579182015b8281111561194e578251825591602001919060010190611933565b5b50905061195c9190611960565b5090565b5b80821115611979576000816000905550600101611961565b5090565b600061199061198b8461230e565b6122e9565b9050828152602081018484840111156119a857600080fd5b6119b38482856124c6565b509392505050565b6000813590506119ca81612b30565b92915050565b6000813590506119df81612b47565b92915050565b6000813590506119f481612b5e565b92915050565b600081519050611a0981612b5e565b92915050565b600082601f830112611a2057600080fd5b8135611a3084826020860161197d565b91505092915050565b600081359050611a4881612b75565b92915050565b600060208284031215611a6057600080fd5b6000611a6e848285016119bb565b91505092915050565b60008060408385031215611a8a57600080fd5b6000611a98858286016119bb565b9250506020611aa9858286016119bb565b9150509250929050565b600080600060608486031215611ac857600080fd5b6000611ad6868287016119bb565b9350506020611ae7868287016119bb565b9250506040611af886828701611a39565b9150509250925092565b60008060008060808587031215611b1857600080fd5b6000611b26878288016119bb565b9450506020611b37878288016119bb565b9350506040611b4887828801611a39565b925050606085013567ffffffffffffffff811115611b6557600080fd5b611b7187828801611a0f565b91505092959194509250565b60008060408385031215611b9057600080fd5b6000611b9e858286016119bb565b9250506020611baf858286016119d0565b9150509250929050565b60008060408385031215611bcc57600080fd5b6000611bda858286016119bb565b9250506020611beb85828601611a39565b9150509250929050565b600060208284031215611c0757600080fd5b6000611c15848285016119e5565b91505092915050565b600060208284031215611c3057600080fd5b6000611c3e848285016119fa565b91505092915050565b600060208284031215611c5957600080fd5b6000611c6784828501611a39565b91505092915050565b611c7981612452565b82525050565b611c8881612464565b82525050565b6000611c9982612354565b611ca3818561236a565b9350611cb38185602086016124d5565b611cbc816126a1565b840191505092915050565b6000611cd28261235f565b611cdc818561237b565b9350611cec8185602086016124d5565b611cf5816126a1565b840191505092915050565b6000611d0b8261235f565b611d15818561238c565b9350611d258185602086016124d5565b80840191505092915050565b60008154611d3e81612508565b611d48818661238c565b94506001821660008114611d635760018114611d7457611da7565b60ff19831686528186019350611da7565b611d7d8561233f565b60005b83811015611d9f57815481890152600182019150602081019050611d80565b838801955050505b50505092915050565b6000611dbd60328361237b565b9150611dc8826126b2565b604082019050919050565b6000611de060258361237b565b9150611deb82612701565b604082019050919050565b6000611e03601c8361237b565b9150611e0e82612750565b602082019050919050565b6000611e2660248361237b565b9150611e3182612779565b604082019050919050565b6000611e4960198361237b565b9150611e54826127c8565b602082019050919050565b6000611e6c602c8361237b565b9150611e77826127f1565b604082019050919050565b6000611e8f60388361237b565b9150611e9a82612840565b604082019050919050565b6000611eb2602a8361237b565b9150611ebd8261288f565b604082019050919050565b6000611ed560298361237b565b9150611ee0826128de565b604082019050919050565b6000611ef8602e8361237b565b9150611f038261292d565b604082019050919050565b6000611f1b60208361237b565b9150611f268261297c565b602082019050919050565b6000611f3e60318361237b565b9150611f49826129a5565b604082019050919050565b6000611f61602c8361237b565b9150611f6c826129f4565b604082019050919050565b6000611f84602f8361237b565b9150611f8f82612a43565b604082019050919050565b6000611fa760218361237b565b9150611fb282612a92565b604082019050919050565b6000611fca60318361237b565b9150611fd582612ae1565b604082019050919050565b611fe9816124bc565b82525050565b6000611ffb8285611d00565b91506120078284611d00565b91508190509392505050565b600061201f8284611d31565b915081905092915050565b600060208201905061203f6000830184611c70565b92915050565b600060808201905061205a6000830187611c70565b6120676020830186611c70565b6120746040830185611fe0565b81810360608301526120868184611c8e565b905095945050505050565b60006020820190506120a66000830184611c7f565b92915050565b600060208201905081810360008301526120c68184611cc7565b905092915050565b600060208201905081810360008301526120e781611db0565b9050919050565b6000602082019050818103600083015261210781611dd3565b9050919050565b6000602082019050818103600083015261212781611df6565b9050919050565b6000602082019050818103600083015261214781611e19565b9050919050565b6000602082019050818103600083015261216781611e3c565b9050919050565b6000602082019050818103600083015261218781611e5f565b9050919050565b600060208201905081810360008301526121a781611e82565b9050919050565b600060208201905081810360008301526121c781611ea5565b9050919050565b600060208201905081810360008301526121e781611ec8565b9050919050565b6000602082019050818103600083015261220781611eeb565b9050919050565b6000602082019050818103600083015261222781611f0e565b9050919050565b6000602082019050818103600083015261224781611f31565b9050919050565b6000602082019050818103600083015261226781611f54565b9050919050565b6000602082019050818103600083015261228781611f77565b9050919050565b600060208201905081810360008301526122a781611f9a565b9050919050565b600060208201905081810360008301526122c781611fbd565b9050919050565b60006020820190506122e36000830184611fe0565b92915050565b60006122f3612304565b90506122ff828261253a565b919050565b6000604051905090565b600067ffffffffffffffff82111561232957612328612672565b5b612332826126a1565b9050602081019050919050565b60008190508160005260206000209050919050565b600081519050919050565b600081519050919050565b600082825260208201905092915050565b600082825260208201905092915050565b600081905092915050565b60006123a2826124bc565b91506123ad836124bc565b9250827fffffffffffffffffffffffffffffffffffffffffffffffffffffffffffffffff038211156123e2576123e16125e5565b5b828201905092915050565b60006123f8826124bc565b9150612403836124bc565b92508261241357612412612614565b5b828204905092915050565b6000612429826124bc565b9150612434836124bc565b925082821015612447576124466125e5565b5b828203905092915050565b600061245d8261249c565b9050919050565b60008115159050919050565b60007fffffffff0000000000000000000000000000000000000000000000000000000082169050919050565b600073ffffffffffffffffffffffffffffffffffffffff82169050919050565b6000819050919050565b82818337600083830152505050565b60005b838110156124f35780820151818401526020810190506124d8565b83811115612502576000848401525b50505050565b6000600282049050600182168061252057607f821691505b6020821081141561253457612533612643565b5b50919050565b612543826126a1565b810181811067ffffffffffffffff8211171561256257612561612672565b5b80604052505050565b6000612576826124bc565b91507fffffffffffffffffffffffffffffffffffffffffffffffffffffffffffffffff8214156125a9576125a86125e5565b5b600182019050919050565b60006125bf826124bc565b91506125ca836124bc565b9250826125da576125d9612614565b5b828206905092915050565b7f4e487b7100000000000000000000000000000000000000000000000000000000600052601160045260246000fd5b7f4e487b7100000000000000000000000000000000000000000000000000000000600052601260045260246000fd5b7f4e487b7100000000000000000000000000000000000000000000000000000000600052602260045260246000fd5b7f4e487b7100000000000000000000000000000000000000000000000000000000600052604160045260246000fd5b6000601f19601f8301169050919050565b7f4552433732313a207472616e7366657220746f206e6f6e20455243373231526560008201527f63656976657220696d706c656d656e7465720000000000000000000000000000602082015250565b7f4552433732313a207472616e736665722066726f6d20696e636f72726563742060008201527f6f776e6572000000000000000000000000000000000000000000000000000000602082015250565b7f4552433732313a20746f6b656e20616c7265616479206d696e74656400000000600082015250565b7f4552433732313a207472616e7366657220746f20746865207a65726f2061646460008201527f7265737300000000000000000000000000000000000000000000000000000000602082015250565b7f4552433732313a20617070726f766520746f2063616c6c657200000000000000600082015250565b7f4552433732313a206f70657261746f7220717565727920666f72206e6f6e657860008201527f697374656e7420746f6b656e0000000000000000000000000000000000000000602082015250565b7f4552433732313a20617070726f76652063616c6c6572206973206e6f74206f7760008201527f6e6572206e6f7220617070726f76656420666f7220616c6c0000000000000000602082015250565b7f4552433732313a2062616c616e636520717565727920666f7220746865207a6560008201527f726f206164647265737300000000000000000000000000000000000000000000602082015250565b7f4552433732313a206f776e657220717565727920666f72206e6f6e657869737460008201527f656e7420746f6b656e0000000000000000000000000000000000000000000000602082015250565b7f45524337323155524953746f726167653a2055524920736574206f66206e6f6e60008201527f6578697374656e7420746f6b656e000000000000000000000000000000000000602082015250565b7f4552433732313a206d696e7420746f20746865207a65726f2061646472657373600082015250565b7f45524337323155524953746f726167653a2055524920717565727920666f722060008201527f6e6f6e6578697374656e7420746f6b656e000000000000000000000000000000602082015250565b7f4552433732313a20617070726f76656420717565727920666f72206e6f6e657860008201527f697374656e7420746f6b656e0000000000000000000000000000000000000000602082015250565b7f4552433732314d657461646174613a2055524920717565727920666f72206e6f60008201527f6e6578697374656e7420746f6b656e0000000000000000000000000000000000602082015250565b7f4552433732313a20617070726f76616c20746f2063757272656e74206f776e6560008201527f7200000000000000000000000000000000000000000000000000000000000000602082015250565b7f4552433732313a207472616e736665722063616c6c6572206973206e6f74206f60008201527f776e6572206e6f7220617070726f766564000000000000000000000000000000602082015250565b612b3981612452565b8114612b4457600080fd5b50565b612b5081612464565b8114612b5b57600080fd5b50565b612b6781612470565b8114612b7257600080fd5b50565b612b7e816124bc565b8114612b8957600080fd5b5056fea2646970667358221220787757eb6873968b0213fd6e66a6791e9260656ca3480b09bb5cd5de102b324164736f6c63430008040033646174613a6170706c69636174696f6e2f6a736f6e3b6261736536342c65776f6749434167496d3568625755694f694169563239334953497343694167494341695a47567a59334a7063485270623234694f694169566e59675132397662434254566b63684969774b4943416749434a706257466e5a53493649434a6b595852684f6d6c745957646c4c334e325a79743462577737596d467a5a5459304c464249546a4a6165554930596c643464574e364d4735685346497759305276646b777a5a444e6b6554557a54586b31646d4e7459335a4e616b463354554d35656d52745932354a53454a35576c684f62474e75576d785257453533576c644f4d465674526a4268567a6735536a4e6f546d46584e5670555632783153556378624670595557354a53467077576c686b5132497a5a7a6c4b656b466e54554e42656b35555157644e656c5633536e6f304f46707462484e6b52315a3553556473613142545a48706b52305a3559336c6a4b314248576d785753465a3557573557633170584e57706155304a705756684f62464a75536d786a57465a73596d314f4e5642545933644d616b317554486f304f467074566b52694d6e68325932737861475249536e426c51304979575664344d56705954546c4b656b466e54554e4264306c456132644d5646466e54554e4264306c455157645055304630546b4e4264306c455157644e5130453153554d774d456c455157644e51304633535552425a30315459335a51616e6432576d317363325248566e6c51616e6874595664344d4670595357646856314535536a4a4f6332497a566d746a65574d725545646162465a49566e6c5a626c5a7a576c6331616c7054516a426c57454a7355464e6b62574e74526d706b52305a7a5647303563474d795657354a5230706f597a4a5752324e74566e686b56315a3157544e724f5570365158564e52454634536e6c43645752584d56425a4d314a6f5a473157656c4254597a464b6554677255456461624645794f584e694d30704f57566853655746595a32646b62555a7a5a466457656c42545933684a5245466e54554e4264306c455157644e55304633535552425a3031445158644a5245566e54554e4264306c455157644e51304633535552425a3031445158644a5245567554486f304f467074566b52694d6a4633596a493162474a75556c566a62555a31597a4a6162474e714e44686162565a485a466331616c5670516a426c57454a7355464e6b4d466c58536e4e6155324e6e5a45644761574a48566c645a56336778576c684e4f5570365157644d616b463553554d30643031355158564e5245316e544770424e556c444e48684e615546315457706a5a3078716133684a517a523653554d30643031355158644a5245467554486f304f467074566b646b567a5671556e6c434d475659516d7851553251775756644b633170545932646b52305a70596b645756316c586544466157453035536e6b30643031545158564e5247746e544770464d6b6c444e486850513046315458706e5a3078715554524a517a5178546b4e42645535365457644d616b313653554d30643039545158564e5245566e54477042654570354f43745152317073556d355764566b775357646b53477833576c5177626d5248526d6c69523156755355685361466c746547785762555a7a5a466457656c42545933564e5245316e544770464d306c444e48704a517a5235546c4e42645531365932644d616c463553554d304d4531705158564f615546315456526a5a3078715158684a5245466e54554e6a646c427164335a6162565a45596a4978643249794e577869626c4a565932314764574d79576d786a616a513454444a6163474a49556d786a616a5134576d317363325248566e6c4a5232787255464e6b616d4a484f54466153453135536e6f304f467074566c566b574570705a46643462474a74546d784a53464931593064564f556f79576e6c5a5630347757566434543249796248706155324e6e57573147656c7056576e6c6157455978576c6331616d56554d47354e517a5234536e6c43645752584d56425a4d314a6f5a473157656c4254597a464b6554677255456461624645794f584e694d30704f57566853655746595a32646b62555a7a5a466457656c42545933684a5245466e54564e4264306c455157644e55304633535552425a3031445158684a5245566e54564e4264306c455157644e51304633535552425a3031445158644a5245567554486f304f467074566b52694d6a4633596a493162474a75556c566a62555a31597a4a6162474e714e44686162565a485a466331616c5670516a426c57454a7355464e6b4d466c58536e4e6155324e6e5a45644761574a48566c645a56336778576c684e4f5570365157644d616b463553554d30643031355158564e5245316e544770424e556c444e48684e615546315457706a5a3078716133684a517a523653554d30643031355158644a5245467554486f304f467074566b646b567a5671556e6c434d475659516d7851553251775756644b633170545932646b52305a70596b645756316c586544466157453035536e6b30643031545158564e5247746e544770464d6b6c444e486850513046315458706e5a3078715554524a517a5178546b4e42645535365457644d616b313653554d30643039545158564e5245566e54477042654570354f43745152317073556d355764566b775357646b53477833576c5177626d5248526d6c69523156755355685361466c746547785762555a7a5a466457656c42545933564e5245316e544770464d306c444e48704a517a5235546c4e42645531365932644d616c463553554d304d4531705158564f615546315456526a5a3078715158684a5245466e54554e6a646c427164335a6162565a45596a4978643249794e577869626c4a565932314764574d79576d786a616a513454444a6163474a49556d786a616a513459323157616d5244516a4e685631497759555177626b31365658644b65554a76576c6473626d464955546c4b656b307854554e6a5a31707462484e6b52315a3555464e6b4d574e746432394a4d3034775756684b656b745459335a51616e6835576c644f4d456c495a48426153464a7655464e6a656b35555157354a523268735956646b623252454d47354e656c5633536e6c43625746586544426157456b35536a4e5765574a445a32705a4d6e68325a466453656b31706132354a527a6c335756644f63475249617a6c4b6554523354564e6a646c427165486c61563034775355686b63467049556d395155324e36546c5242626b6c4861477868563252765a455177626b31365658644b65554a74595664344d46705953546c4b4d315a35596b4e6e616c6b7965485a6b56314a3653314e6a5a32497a516d685a4d6d77775a565177626b78715457354d656a5134593064474d474644516e426152444275596c687355566c59556d394e61574e6e576d317363324a454d47356962546c31576c4e6a5a324d7a556e6c694d6e52735446637863475248566e6c6952327830595668524f5570365258644b65554a7255464e6a5a3152545158704e5245466e5457704264306c465257644e5645463353555246643031445158644a5245566e54564e42656b31455157644e5647737a536e6b344b314249556d786c5346466e576d317363324a454d47356b4d6d68775a456456626b6c49556d786c5346463057566331616d46484f586c51553252305956645361324a4856573551615555345756633163474a58526a4261565446325a456473646d4a70516d746b57456b35536e7061656b7035516e6c6157454a73575668535247497a566e566b524442755956633161317058576e426962577777576c4e6a4b3142484d58645a57464a765355646f6556705857546c4b655535305a565a43614752485a336c4b6554677255454d3561474a746248525a57464a73564663354d4746584f585651616e64325a4564574e4752454e44686b523159305a454e436257465865484e515532517a595564734d4670545932646b523159305a454d7861474a74546d39694d306b35536a497863467048556e4e6155324d72566e703461474a746248525a57464a73564663354d4746584f58564a5231497859326f77626b35755457354a534570735930645761475246546e5a6b567a557755464e6b63474a74556d7861625778315956685362457035516d6c6156325277596d6f77626b31444e486c6a65574d725545637864316c59556d394a52326835576c645a4f557035546e526c566b4a6f5a45646e655570354f437451517a6c6f596d317364466c59556d7855567a6b77595663356456427164335a6b523159305a4551304f475248566a526b51304a7459566434633142545a444e6852327777576c4e6a5a325248566a526b517a466f596d314f6232497a53546c4b4d6a4677576b64536331705459797455656e686f596d317364466c59556d7855567a6b775956633564556c48556a466a616a4275546d354e626b6c49536d786a52315a6f5a45564f646d52584e54425155325277596d3153624670746248566857464a73536e6c43615670585a484269616a427554554d304d474e3559797451527a46335756685362306c4861486c6156316b35536e6c4f64475657516d686b52326435536e6b344b3142444f5768696257783057566853624652584f544268567a6c3155477033646d5248566a526b524451345a4564574e475244516d31685633687a55464e6b4d3246486244426155324e6e5a4564574e4752444d57686962553576596a4e4a4f556f794d58426152314a7a576c4e6a4b315a36654768696257783057566853624652584f544268567a6c31535564534d574e714d47354f626b31755355684b62474e48566d686b525535325a4663314d4642545a48426962564a73576d317364574659556d784b65554a70576c646b63474a714d47354e517a517959336c6a4b3142484d58645a57464a765355646f6556705857546c4b655535305a565a43614752485a336c4b6554677255454d3561474a746248525a57464a73564663354d4746584f585651616e64325a4564574e4752454e44684d4d303479576e6f305053494b66513d3d",
  "linkReferences": {},
  "deployedLinkReferences": {}
}